:107C000084B714BE81FFA6D185E08093810082E015
:107C10008093C00088E18093C10096E09093C200F9
:107C200090E19093C400809360008EE080936000A8
:107C3000259A26E080E39CEF31E0909385008093C5
:107C4000840036BBB09BFECF1D9AA8952150A9F7A2
:107C500008E1B8E0FB2EEE24E394C5E0DC2ED1E190
:107C6000CD2E13E0A6D0813429F481E082D183E0C7
:107C700099D095C0823419F484E17BD190C08534C9
:107C800019F485E076D18BC0853571F492D0C82F78
:107C900090D02C2F30E0382B220F331F309301026D
:107CA0002093000260D17BC0863529F484E061D145
:107CB00080E078D074C0843609F046C084D0E0916A
:107CC0000002F0910102E11580E7F80710F417BFF8
:107CD000E895C0E0D1E06DD0899380910202815097
:107CE000809302028111F7CFE0910002F09101022E
:107CF000E11580E7F80710F017BFE89534D107B613
:107D000000FCFDCF40910002509101029A01A0E0D9
:107D1000B1E08C911296FD013197608190E0962B35
:107D2000F9010C01E7BEE89511242E5F3F4FA03802
:107D3000F1E0BF0771F7FA01D7BEE89507B600FC7E
:107D4000FDCFC7BEE8952BC08437B1F43CD00BD132
:107D5000E0910002F0910102CF010196909301029F
:107D60008093000284911ED0809102028150809302
:107D700002028111EDCF13C0853741F4F4D08EE1BA
:107D800011D085E90FD08FE00DD009C0813531F4D5
:107D900000936000F0926000E6D001C0E4D080E182
:107DA00001D060CF9091C00095FFFCCF8093C600BA
:107DB0000895A8951D9A8091C00087FFFCCF8091FF
:107DC000C6001D9A0895F5DFF4DF80930202F1CF1B
:107DD000E0E6F0E098E19083808308958EBD0DB4D5
:107DE00007FEFDCF8EB50895CF93DF93EC01299A5E
:107DF000299883E0F3DF8D2FF1DF8C2FDF91CF9176
:107E0000EDCF8F929F92AF92BF92CF92DF92EF927F
:107E1000FF920F931F93CF93DF9300D000D000D039
:107E2000CDB7DEB784B18D6284B980E58CBD299869
:107E300081E0D4DF81E4D2DF299A80E090E0D4DFD2
:107E40008E010F5F1F4F7E0125E0E20EF11C8FEFC8
:107E5000C5DFF80181938F01EE15FF05C1F78FEFA4
:107E6000BDDF8D838FEFBADF8E8389819A81AB81ED
:107E7000BC81813C904FA54AB94709F058C02D817B
:107E80003E81C901880F892F881F990B9195D82EA3
:107E90002F773327232B19F0DD24D394D80E00E05D
:107EA00010E0C12C63E0B62EAA24A39475E0972EAF
:107EB000E1E18E2ECD1409F43AC0E12CFF24F394B5
:107EC0008FEF8CDFF70181937F01F0E8EF16F1E08F
:107ED000FF06B1F7F999FECFF801B7BEE89507B6EE
:107EE00000FCFDCF80E090E0FC01F3954081FC01B7
:107EF000E00FF11FDC01AF5FBE4F2C9130E0322F5D
:107F00002227240F311D0901A7BEE89511240296EE
:107F10008038910549F7F80197BEE89507B600FC4F
:107F2000FDCF87BEE89500581F4FC394C3CF269658
:107F30000FB6F894DEBF0FBECDBFDF91CF911F917A
:107F40000F91FF90EF90DF90CF90BF90AF909F90F8
:107F50008F900895E0E6F0E088E18083108251DFA1
:107F6000EE27FF27099425DF803209F0F3DF84E153
:107F700019CFCF93C82F1DDFC150E9F7CF91F3CFB1
:0400000300007C007D
:00000001FF
